{
    "contractName": "Router",
    "abi": [
        {
            "inputs": [
                {
                    "internalType": "address",
                    "name": "_factory",
                    "type": "address"
                },
                {
                    "internalType": "address",
                    "name": "_WETH",
                    "type": "address"
                }
            ],
            "stateMutability": "nonpayable",
            "type": "constructor"
        },
        {
            "inputs": [],
            "name": "WETH",
            "outputs": [
                {
                    "internalType": "address",
                    "name": "",
                    "type": "address"
                }
            ],
            "stateMutability": "view",
            "type": "function"
        },
        {
            "inputs": [
                {
                    "internalType": "address",
                    "name": "baseToken",
                    "type": "address"
                },
                {
                    "internalType": "address",
                    "name": "quoteToken",
                    "type": "address"
                },
                {
                    "internalType": "uint256",
                    "name": "baseAmount",
                    "type": "uint256"
                },
                {
                    "internalType": "uint256",
                    "name": "quoteAmountMin",
                    "type": "uint256"
                },
                {
                    "internalType": "uint256",
                    "name": "deadline",
                    "type": "uint256"
                },
                {
                    "internalType": "bool",
                    "name": "autoStake",
                    "type": "bool"
                }
            ],
            "name": "addLiquidity",
            "outputs": [
                {
                    "internalType": "uint256",
                    "name": "quoteAmount",
                    "type": "uint256"
                },
                {
                    "internalType": "uint256",
                    "name": "liquidity",
                    "type": "uint256"
                }
            ],
            "stateMutability": "nonpayable",
            "type": "function"
        },
        {
            "inputs": [
                {
                    "internalType": "address",
                    "name": "baseToken",
                    "type": "address"
                },
                {
                    "internalType": "address",
                    "name": "quoteToken",
                    "type": "address"
                },
                {
                    "internalType": "uint256",
                    "name": "quoteAmount",
                    "type": "uint256"
                },
                {
                    "internalType": "uint256",
                    "name": "deadline",
                    "type": "uint256"
                },
                {
                    "internalType": "bool",
                    "name": "autoWithdraw",
                    "type": "bool"
                }
            ],
            "name": "closePosition",
            "outputs": [
                {
                    "internalType": "uint256",
                    "name": "baseAmount",
                    "type": "uint256"
                },
                {
                    "internalType": "uint256",
                    "name": "withdrawAmount",
                    "type": "uint256"
                }
            ],
            "stateMutability": "nonpayable",
            "type": "function"
        },
        {
            "inputs": [
                {
                    "internalType": "address",
                    "name": "baseToken",
                    "type": "address"
                },
                {
                    "internalType": "address",
                    "name": "quoteToken",
                    "type": "address"
                },
                {
                    "internalType": "address",
                    "name": "holder",
                    "type": "address"
                },
                {
                    "internalType": "uint256",
                    "name": "amount",
                    "type": "uint256"
                }
            ],
            "name": "deposit",
            "outputs": [],
            "stateMutability": "nonpayable",
            "type": "function"
        },
        {
            "inputs": [],
            "name": "factory",
            "outputs": [
                {
                    "internalType": "address",
                    "name": "",
                    "type": "address"
                }
            ],
            "stateMutability": "view",
            "type": "function"
        },
        {
            "inputs": [
                {
                    "internalType": "address",
                    "name": "baseToken",
                    "type": "address"
                },
                {
                    "internalType": "address",
                    "name": "quoteToken",
                    "type": "address"
                },
                {
                    "internalType": "address",
                    "name": "holder",
                    "type": "address"
                }
            ],
            "name": "getPosition",
            "outputs": [
                {
                    "internalType": "int256",
                    "name": "baseSize",
                    "type": "int256"
                },
                {
                    "internalType": "int256",
                    "name": "quoteSize",
                    "type": "int256"
                },
                {
                    "internalType": "uint256",
                    "name": "tradeSize",
                    "type": "uint256"
                }
            ],
            "stateMutability": "view",
            "type": "function"
        },
        {
            "inputs": [
                {
                    "internalType": "address",
                    "name": "baseToken",
                    "type": "address"
                },
                {
                    "internalType": "address",
                    "name": "quoteToken",
                    "type": "address"
                },
                {
                    "internalType": "uint8",
                    "name": "side",
                    "type": "uint8"
                },
                {
                    "internalType": "uint256",
                    "name": "baseAmount",
                    "type": "uint256"
                }
            ],
            "name": "getQuoteAmount",
            "outputs": [
                {
                    "internalType": "uint256",
                    "name": "quoteAmount",
                    "type": "uint256"
                }
            ],
            "stateMutability": "view",
            "type": "function"
        },
        {
            "inputs": [
                {
                    "internalType": "address",
                    "name": "baseToken",
                    "type": "address"
                },
                {
                    "internalType": "address",
                    "name": "quoteToken",
                    "type": "address"
                }
            ],
            "name": "getReserves",
            "outputs": [
                {
                    "internalType": "uint256",
                    "name": "reserveBase",
                    "type": "uint256"
                },
                {
                    "internalType": "uint256",
                    "name": "reserveQuote",
                    "type": "uint256"
                }
            ],
            "stateMutability": "view",
            "type": "function"
        },
        {
            "inputs": [
                {
                    "internalType": "address",
                    "name": "baseToken",
                    "type": "address"
                },
                {
                    "internalType": "address",
                    "name": "quoteToken",
                    "type": "address"
                },
                {
                    "internalType": "address",
                    "name": "holder",
                    "type": "address"
                }
            ],
            "name": "getWithdrawable",
            "outputs": [
                {
                    "internalType": "uint256",
                    "name": "amount",
                    "type": "uint256"
                }
            ],
            "stateMutability": "view",
            "type": "function"
        },
        {
            "inputs": [
                {
                    "internalType": "address",
                    "name": "baseToken",
                    "type": "address"
                },
                {
                    "internalType": "address",
                    "name": "quoteToken",
                    "type": "address"
                },
                {
                    "internalType": "uint8",
                    "name": "side",
                    "type": "uint8"
                },
                {
                    "internalType": "uint256",
                    "name": "quoteAmount",
                    "type": "uint256"
                },
                {
                    "internalType": "uint256",
                    "name": "baseAmountLimit",
                    "type": "uint256"
                },
                {
                    "internalType": "uint256",
                    "name": "deadline",
                    "type": "uint256"
                }
            ],
            "name": "openPositionWithMargin",
            "outputs": [
                {
                    "internalType": "uint256",
                    "name": "baseAmount",
                    "type": "uint256"
                }
            ],
            "stateMutability": "nonpayable",
            "type": "function"
        },
        {
            "inputs": [
                {
                    "internalType": "address",
                    "name": "baseToken",
                    "type": "address"
                },
                {
                    "internalType": "address",
                    "name": "quoteToken",
                    "type": "address"
                },
                {
                    "internalType": "uint8",
                    "name": "side",
                    "type": "uint8"
                },
                {
                    "internalType": "uint256",
                    "name": "marginAmount",
                    "type": "uint256"
                },
                {
                    "internalType": "uint256",
                    "name": "quoteAmount",
                    "type": "uint256"
                },
                {
                    "internalType": "uint256",
                    "name": "baseAmountLimit",
                    "type": "uint256"
                },
                {
                    "internalType": "uint256",
                    "name": "deadline",
                    "type": "uint256"
                }
            ],
            "name": "openPositionWithWallet",
            "outputs": [
                {
                    "internalType": "uint256",
                    "name": "baseAmount",
                    "type": "uint256"
                }
            ],
            "stateMutability": "nonpayable",
            "type": "function"
        },
        {
            "inputs": [
                {
                    "internalType": "address",
                    "name": "baseToken",
                    "type": "address"
                },
                {
                    "internalType": "address",
                    "name": "quoteToken",
                    "type": "address"
                },
                {
                    "internalType": "uint8",
                    "name": "side",
                    "type": "uint8"
                },
                {
                    "internalType": "uint256",
                    "name": "baseAmount",
                    "type": "uint256"
                }
            ],
            "name": "queryMaxOpenPosition",
            "outputs": [
                {
                    "internalType": "uint256",
                    "name": "quoteAmount",
                    "type": "uint256"
                }
            ],
            "stateMutability": "view",
            "type": "function"
        },
        {
            "inputs": [
                {
                    "internalType": "address",
                    "name": "baseToken",
                    "type": "address"
                },
                {
                    "internalType": "address",
                    "name": "quoteToken",
                    "type": "address"
                },
                {
                    "internalType": "uint256",
                    "name": "liquidity",
                    "type": "uint256"
                },
                {
                    "internalType": "uint256",
                    "name": "baseAmountMin",
                    "type": "uint256"
                },
                {
                    "internalType": "uint256",
                    "name": "deadline",
                    "type": "uint256"
                }
            ],
            "name": "removeLiquidity",
            "outputs": [
                {
                    "internalType": "uint256",
                    "name": "baseAmount",
                    "type": "uint256"
                },
                {
                    "internalType": "uint256",
                    "name": "quoteAmount",
                    "type": "uint256"
                }
            ],
            "stateMutability": "nonpayable",
            "type": "function"
        },
        {
            "inputs": [
                {
                    "internalType": "address",
                    "name": "baseToken",
                    "type": "address"
                },
                {
                    "internalType": "address",
                    "name": "quoteToken",
                    "type": "address"
                },
                {
                    "internalType": "uint256",
                    "name": "amount",
                    "type": "uint256"
                }
            ],
            "name": "withdraw",
            "outputs": [],
            "stateMutability": "nonpayable",
            "type": "function"
        },
        {
            "stateMutability": "payable",
            "type": "receive"
        }
    ],
    "bytecode": "60c06040523480156200001157600080fd5b506040516200259e3803806200259e833981016040819052620000349162000069565b6001600160a01b039182166080521660a052620000a1565b80516001600160a01b03811681146200006457600080fd5b919050565b600080604083850312156200007d57600080fd5b62000088836200004c565b915062000098602084016200004c565b90509250929050565b60805160a0516124616200013d6000396000818160f1015261025a0152600081816102a601528181610382015281816104b401528181610613015281816108a501528181610a9501528181610bfc01528181610e1301528181610f7a015281816110bb01528181611208015281816113eb0152818161154b01528181611600015281816116a7015281816117e2015261188301526124616000f3fe6080604052600436106100e15760003560e01c8063ad5c46481161007f578063d9caed1211610059578063d9caed12146102e8578063e2dc85dc14610308578063eb194c4714610328578063fbf0f0e31461034857600080fd5b8063ad5c464814610248578063c45a015514610294578063d52bb6f4146102c857600080fd5b806343c8d33b116100bb57806343c8d33b14610198578063713390f5146101b85780637dbdc226146101f3578063ab46b4a61461022857600080fd5b80630284c3f51461012557806305ea8223146101455780633dff89a71461017857600080fd5b3661012057336001600160a01b037f0000000000000000000000000000000000000000000000000000000000000000161461011e5761011e611de1565b005b600080fd5b34801561013157600080fd5b5061011e610140366004611e0f565b610368565b34801561015157600080fd5b50610165610160366004611e60565b6104af565b6040519081526020015b60405180910390f35b34801561018457600080fd5b50610165610193366004611ec1565b6105d6565b3480156101a457600080fd5b506101656101b3366004611f2d565b610868565b3480156101c457600080fd5b506101d86101d3366004611e60565b610a8d565b6040805193845260208401929092529082015260600161016f565b3480156101ff57600080fd5b5061021361020e366004611f9e565b610bbe565b6040805192835260208301919091520161016f565b34801561023457600080fd5b50610165610243366004611ffd565b610e0e565b34801561025457600080fd5b5061027c7f000000000000000000000000000000000000000000000000000000000000000081565b6040516001600160a01b03909116815260200161016f565b3480156102a057600080fd5b5061027c7f000000000000000000000000000000000000000000000000000000000000000081565b3480156102d457600080fd5b506102136102e336600461203c565b610f73565b3480156102f457600080fd5b5061011e610303366004612075565b6110a1565b34801561031457600080fd5b506102136103233660046120b6565b6111ca565b34801561033457600080fd5b50610165610343366004611ffd565b6113e6565b34801561035457600080fd5b50610213610363366004612107565b611515565b6040516306dac30160e11b81526000906001600160a01b037f00000000000000000000000000000000000000000000000000000000000000001690630db58602906103b9908890889060040161216e565b60206040518083038186803b1580156103d157600080fd5b505afa1580156103e5573d6000803e3d6000fd5b505050506040513d601f19601f820116820180604052508101906104099190612188565b90506001600160a01b03811661043a5760405162461bcd60e51b8152600401610431906121ac565b60405180910390fd5b61044685338385611a9d565b60405163cf70cb6960e01b81526001600160a01b0384811660048301526024820184905282169063cf70cb6990604401600060405180830381600087803b15801561049057600080fd5b505af11580156104a4573d6000803e3d6000fd5b505050505050505050565b6000807f00000000000000000000000000000000000000000000000000000000000000006001600160a01b0316630db5860286866040518363ffffffff1660e01b815260040161050092919061216e565b60206040518083038186803b15801561051857600080fd5b505afa15801561052c573d6000803e3d6000fd5b505050506040513d601f19601f820116820180604052508101906105509190612188565b604051631966357360e11b81526001600160a01b038581166004830152919250908216906332cc6ae69060240160206040518083038186803b15801561059557600080fd5b505afa1580156105a9573d6000803e3d6000fd5b505050506040513d601f19601f820116820180604052508101906105cd91906121da565b95945050505050565b600081428110156105f95760405162461bcd60e51b8152600401610431906121f3565b6040516306dac30160e11b81526000906001600160a01b037f00000000000000000000000000000000000000000000000000000000000000001690630db586029061064a908d908d9060040161216e565b60206040518083038186803b15801561066257600080fd5b505afa158015610676573d6000803e3d6000fd5b505050506040513d601f19601f8201168201806040525081019061069a9190612188565b90506001600160a01b0381166106c25760405162461bcd60e51b8152600401610431906121ac565b60ff881615806106d557508760ff166001145b61071d5760405162461bcd60e51b8152602060048201526019602482015278526f757465723a20494e53554646494349454e545f5349444560381b6044820152606401610431565b6107298a33838a611a9d565b60405163cf70cb6960e01b8152336004820152602481018890526001600160a01b0382169063cf70cb6990604401600060405180830381600087803b15801561077157600080fd5b505af1158015610785573d6000803e3d6000fd5b50506040516302c6234760e01b815260ff8b166004820152602481018990526001600160a01b03841692506302c623479150604401602060405180830381600087803b1580156107d457600080fd5b505af11580156107e8573d6000803e3d6000fd5b505050506040513d601f19601f8201168201806040525081019061080c91906121da565b925060ff881661083b57848310156108365760405162461bcd60e51b81526004016104319061221c565b61085b565b8483111561085b5760405162461bcd60e51b81526004016104319061221c565b5050979650505050505050565b6000814281101561088b5760405162461bcd60e51b8152600401610431906121f3565b6040516306dac30160e11b81526000906001600160a01b037f00000000000000000000000000000000000000000000000000000000000000001690630db58602906108dc908c908c9060040161216e565b60206040518083038186803b1580156108f457600080fd5b505afa158015610908573d6000803e3d6000fd5b505050506040513d601f19601f8201168201806040525081019061092c9190612188565b90506001600160a01b0381166109545760405162461bcd60e51b8152600401610431906121ac565b60ff8716158061096757508660ff166001145b6109af5760405162461bcd60e51b8152602060048201526019602482015278526f757465723a20494e53554646494349454e545f5349444560381b6044820152606401610431565b6040516302c6234760e01b815260ff88166004820152602481018790526001600160a01b038216906302c6234790604401602060405180830381600087803b1580156109fa57600080fd5b505af1158015610a0e573d6000803e3d6000fd5b505050506040513d601f19601f82011682018060405250810190610a3291906121da565b925060ff8716610a615784831015610a5c5760405162461bcd60e51b81526004016104319061221c565b610a81565b84831115610a815760405162461bcd60e51b81526004016104319061221c565b50509695505050505050565b6000806000807f00000000000000000000000000000000000000000000000000000000000000006001600160a01b0316630db5860288886040518363ffffffff1660e01b8152600401610ae192919061216e565b60206040518083038186803b158015610af957600080fd5b505afa158015610b0d573d6000803e3d6000fd5b505050506040513d601f19601f82011682018060405250810190610b319190612188565b6040516316c1973960e01b81526001600160a01b038781166004830152919250908216906316c197399060240160606040518083038186803b158015610b7657600080fd5b505afa158015610b8a573d6000803e3d6000fd5b505050506040513d601f19601f82011682018060405250810190610bae919061225d565b9199909850909650945050505050565b6000808342811015610be25760405162461bcd60e51b8152600401610431906121f3565b6040516306dac30160e11b81526000906001600160a01b037f00000000000000000000000000000000000000000000000000000000000000001690630db5860290610c33908c908c9060040161216e565b60206040518083038186803b158015610c4b57600080fd5b505afa158015610c5f573d6000803e3d6000fd5b505050506040513d601f19601f82011682018060405250810190610c839190612188565b90506001600160a01b038116610cab5760405162461bcd60e51b8152600401610431906121ac565b60405163a126d60160e01b8152600481018890526001600160a01b0382169063a126d60190602401602060405180830381600087803b158015610ced57600080fd5b505af1158015610d01573d6000803e3d6000fd5b505050506040513d601f19601f82011682018060405250810190610d2591906121da565b93508415610e0257604051631966357360e11b81523360048201526001600160a01b038216906332cc6ae69060240160206040518083038186803b158015610d6c57600080fd5b505afa158015610d80573d6000803e3d6000fd5b505050506040513d601f19601f82011682018060405250810190610da491906121da565b60405163f11f854f60e01b8152600481018290529093506001600160a01b0382169063f11f854f90602401600060405180830381600087803b158015610de957600080fd5b505af1158015610dfd573d6000803e3d6000fd5b505050505b50509550959350505050565b6000807f00000000000000000000000000000000000000000000000000000000000000006001600160a01b03166365cc7a1d87876040518363ffffffff1660e01b8152600401610e5f92919061216e565b60206040518083038186803b158015610e7757600080fd5b505afa158015610e8b573d6000803e3d6000fd5b505050506040513d601f19601f82011682018060405250810190610eaf9190612188565b9050600080826001600160a01b0316630902f1ac6040518163ffffffff1660e01b815260040160606040518083038186803b158015610eed57600080fd5b505afa158015610f01573d6000803e3d6000fd5b505050506040513d601f19601f82011682018060405250810190610f2591906122a2565b506001600160701b031691506001600160701b031691508560ff1660001415610f5a57610f53858284611bdb565b9350610f68565b610f65858383611cdc565b93505b505050949350505050565b60008060007f00000000000000000000000000000000000000000000000000000000000000006001600160a01b03166365cc7a1d86866040518363ffffffff1660e01b8152600401610fc692919061216e565b60206040518083038186803b158015610fde57600080fd5b505afa158015610ff2573d6000803e3d6000fd5b505050506040513d601f19601f820116820180604052508101906110169190612188565b9050806001600160a01b0316630902f1ac6040518163ffffffff1660e01b815260040160606040518083038186803b15801561105157600080fd5b505afa158015611065573d6000803e3d6000fd5b505050506040513d601f19601f8201168201806040525081019061108991906122a2565b506001600160701b0391821697911695509350505050565b6040516306dac30160e11b81526000906001600160a01b037f00000000000000000000000000000000000000000000000000000000000000001690630db58602906110f2908790879060040161216e565b60206040518083038186803b15801561110a57600080fd5b505afa15801561111e573d6000803e3d6000fd5b505050506040513d601f19601f820116820180604052508101906111429190612188565b90506001600160a01b03811661116a5760405162461bcd60e51b8152600401610431906121ac565b60405163f11f854f60e01b8152600481018390526001600160a01b0382169063f11f854f90602401600060405180830381600087803b1580156111ac57600080fd5b505af11580156111c0573d6000803e3d6000fd5b5050505050505050565b60008082428110156111ee5760405162461bcd60e51b8152600401610431906121f3565b6040516365cc7a1d60e01b81526000906001600160a01b037f000000000000000000000000000000000000000000000000000000000000000016906365cc7a1d9061123f908c908c9060040161216e565b60206040518083038186803b15801561125757600080fd5b505afa15801561126b573d6000803e3d6000fd5b505050506040513d601f19601f8201168201806040525081019061128f9190612188565b6040516323b872dd60e01b81523360048201526001600160a01b03821660248201819052604482018a90529192506323b872dd90606401602060405180830381600087803b1580156112e057600080fd5b505af11580156112f4573d6000803e3d6000fd5b505050506040513d601f19601f8201168201806040525081019061131891906122e7565b5060405163226bf2d160e21b81523360048201526001600160a01b038216906389afcb44906024016040805180830381600087803b15801561135957600080fd5b505af115801561136d573d6000803e3d6000fd5b505050506040513d601f19601f820116820180604052508101906113919190612304565b909450925085841015610e025760405162461bcd60e51b815260206004820181905260248201527f526f757465723a20494e53554646494349454e545f424153455f414d4f554e546044820152606401610431565b6000807f00000000000000000000000000000000000000000000000000000000000000006001600160a01b0316630db5860287876040518363ffffffff1660e01b815260040161143792919061216e565b60206040518083038186803b15801561144f57600080fd5b505afa158015611463573d6000803e3d6000fd5b505050506040513d601f19601f820116820180604052508101906114879190612188565b604051630f7c651560e21b815260ff86166004820152602481018590529091506001600160a01b03821690633df194549060440160206040518083038186803b1580156114d357600080fd5b505afa1580156114e7573d6000803e3d6000fd5b505050506040513d601f19601f8201168201806040525081019061150b91906121da565b9695505050505050565b60008083428110156115395760405162461bcd60e51b8152600401610431906121f3565b6040516365cc7a1d60e01b81526000907f00000000000000000000000000000000000000000000000000000000000000006001600160a01b0316906365cc7a1d9061158a908d908d9060040161216e565b60206040518083038186803b1580156115a257600080fd5b505afa1580156115b6573d6000803e3d6000fd5b505050506040513d601f19601f820116820180604052508101906115da9190612188565b6001600160a01b0316141561168d576040516364e329cb60e11b81526001600160a01b037f0000000000000000000000000000000000000000000000000000000000000000169063c9c6539690611637908c908c9060040161216e565b606060405180830381600087803b15801561165157600080fd5b505af1158015611665573d6000803e3d6000fd5b505050506040513d601f19601f820116820180604052508101906116899190612328565b5050505b6040516365cc7a1d60e01b81526000906001600160a01b037f000000000000000000000000000000000000000000000000000000000000000016906365cc7a1d906116de908d908d9060040161216e565b60206040518083038186803b1580156116f657600080fd5b505afa15801561170a573d6000803e3d6000fd5b505050506040513d601f19601f8201168201806040525081019061172e9190612188565b905061173c8a33838b611a9d565b84156119f2576040516335313c2160e11b81523060048201526001600160a01b03821690636a627842906024016040805180830381600087803b15801561178257600080fd5b505af1158015611796573d6000803e3d6000fd5b505050506040513d601f19601f820116820180604052508101906117ba9190612304565b6040516311c8863360e01b81526001600160a01b0384811660048301529296509094506000917f000000000000000000000000000000000000000000000000000000000000000016906311c886339060240160206040518083038186803b15801561182457600080fd5b505afa158015611838573d6000803e3d6000fd5b505050506040513d601f19601f8201168201806040525081019061185c9190612188565b90506001600160a01b03811661190f5760405163309370e560e11b81526001600160a01b037f00000000000000000000000000000000000000000000000000000000000000001690636126e1ca906118ba908e908e9060040161216e565b602060405180830381600087803b1580156118d457600080fd5b505af11580156118e8573d6000803e3d6000fd5b505050506040513d601f19601f8201168201806040525081019061190c9190612188565b90505b60405163095ea7b360e01b81526001600160a01b0382811660048301526024820186905283169063095ea7b390604401602060405180830381600087803b15801561195957600080fd5b505af115801561196d573d6000803e3d6000fd5b505050506040513d601f19601f8201168201806040525081019061199191906122e7565b5060405163534a7e1d60e11b8152600481018590526001600160a01b0382169063a694fc3a90602401600060405180830381600087803b1580156119d457600080fd5b505af11580156119e8573d6000803e3d6000fd5b5050505050611a70565b6040516335313c2160e11b81523360048201526001600160a01b03821690636a627842906024016040805180830381600087803b158015611a3257600080fd5b505af1158015611a46573d6000803e3d6000fd5b505050506040513d601f19601f82011682018060405250810190611a6a9190612304565b90945092505b86841015611a905760405162461bcd60e51b81526004016104319061221c565b5050965096945050505050565b604080516001600160a01b0385811660248301528481166044830152606480830185905283518084039091018152608490920183526020820180516001600160e01b03166323b872dd60e01b1790529151600092839290881691611b01919061236a565b6000604051808303816000865af19150503d8060008114611b3e576040519150601f19603f3d011682016040523d82523d6000602084013e611b43565b606091505b5091509150818015611b6d575080511580611b6d575080806020019051810190611b6d91906122e7565b611bd35760405162461bcd60e51b815260206004820152603160248201527f5472616e7366657248656c7065723a3a7472616e7366657246726f6d3a207472604482015270185b9cd9995c919c9bdb4819985a5b1959607a1b6064820152608401610431565b505050505050565b6000808411611c375760405162461bcd60e51b815260206004820152602260248201527f526f757465723a20494e53554646494349454e545f4f55545055545f414d4f55604482015261139560f21b6064820152608401610431565b600083118015611c475750600082115b611c935760405162461bcd60e51b815260206004820152601e60248201527f526f757465723a20494e53554646494349454e545f4c495155494449545900006044820152606401610431565b6000611c9f85856123bb565b611cab906103e86123bb565b90506000611cb986856123da565b611cc5906103e76123bb565b9050611cd181836123f1565b61150b906001612413565b6000808411611d375760405162461bcd60e51b815260206004820152602160248201527f526f757465723a20494e53554646494349454e545f494e5055545f414d4f554e6044820152601560fa1b6064820152608401610431565b600083118015611d475750600082115b611d935760405162461bcd60e51b815260206004820152601e60248201527f526f757465723a20494e53554646494349454e545f4c495155494449545900006044820152606401610431565b6000611da1856103e76123bb565b90506000611daf84836123bb565b9050600082611dc0876103e86123bb565b611dca9190612413565b9050611dd681836123f1565b979650505050505050565b634e487b7160e01b600052600160045260246000fd5b6001600160a01b0381168114611e0c57600080fd5b50565b60008060008060808587031215611e2557600080fd5b8435611e3081611df7565b93506020850135611e4081611df7565b92506040850135611e5081611df7565b9396929550929360600135925050565b600080600060608486031215611e7557600080fd5b8335611e8081611df7565b92506020840135611e9081611df7565b91506040840135611ea081611df7565b809150509250925092565b803560ff81168114611ebc57600080fd5b919050565b600080600080600080600060e0888a031215611edc57600080fd5b8735611ee781611df7565b96506020880135611ef781611df7565b9550611f0560408901611eab565b969995985095966060810135965060808101359560a0820135955060c0909101359350915050565b60008060008060008060c08789031215611f4657600080fd5b8635611f5181611df7565b95506020870135611f6181611df7565b9450611f6f60408801611eab565b9350606087013592506080870135915060a087013590509295509295509295565b8015158114611e0c57600080fd5b600080600080600060a08688031215611fb657600080fd5b8535611fc181611df7565b94506020860135611fd181611df7565b935060408601359250606086013591506080860135611fef81611f90565b809150509295509295909350565b6000806000806080858703121561201357600080fd5b843561201e81611df7565b9350602085013561202e81611df7565b9250611e5060408601611eab565b6000806040838503121561204f57600080fd5b823561205a81611df7565b9150602083013561206a81611df7565b809150509250929050565b60008060006060848603121561208a57600080fd5b833561209581611df7565b925060208401356120a581611df7565b929592945050506040919091013590565b600080600080600060a086880312156120ce57600080fd5b85356120d981611df7565b945060208601356120e981611df7565b94979496505050506040830135926060810135926080909101359150565b60008060008060008060c0878903121561212057600080fd5b863561212b81611df7565b9550602087013561213b81611df7565b945060408701359350606087013592506080870135915060a087013561216081611f90565b809150509295509295509295565b6001600160a01b0392831681529116602082015260400190565b60006020828403121561219a57600080fd5b81516121a581611df7565b9392505050565b602080825260149082015273526f757465723a205a45524f5f4144445245535360601b604082015260600190565b6000602082840312156121ec57600080fd5b5051919050565b6020808252600f908201526e149bdd5d195c8e8811561412549151608a1b604082015260600190565b60208082526021908201527f526f757465723a20494e53554646494349454e545f51554f54455f414d4f554e6040820152601560fa1b606082015260800190565b60008060006060848603121561227257600080fd5b8351925060208401519150604084015190509250925092565b80516001600160701b0381168114611ebc57600080fd5b6000806000606084860312156122b757600080fd5b6122c08461228b565b92506122ce6020850161228b565b9150604084015163ffffffff81168114611ea057600080fd5b6000602082840312156122f957600080fd5b81516121a581611f90565b6000806040838503121561231757600080fd5b505080516020909101519092909150565b60008060006060848603121561233d57600080fd5b835161234881611df7565b602085015190935061235981611df7565b6040850151909250611ea081611df7565b6000825160005b8181101561238b5760208186018101518583015201612371565b8181111561239a576000828501525b509190910192915050565b634e487b7160e01b600052601160045260246000fd5b60008160001904831182151516156123d5576123d56123a5565b500290565b6000828210156123ec576123ec6123a5565b500390565b60008261240e57634e487b7160e01b600052601260045260246000fd5b500490565b60008219821115612426576124266123a5565b50019056fea2646970667358221220b9f02bff5462b1ac4be9d221c741a0e0f7c54c188032363cb904bcb13360988564736f6c63430008090033",
    "sourcePath": "/Users/jolycao/temp/dex-protocol/contracts/Router.sol",
    "compiler": {
        "name": "solc",
        "version": "0.8.9+commit.e5eed63a"
    },
    "functionHashes": {
        "WETH()": "ad5c4648",
        "addLiquidity(address,address,uint256,uint256,uint256,bool)": "fbf0f0e3",
        "closePosition(address,address,uint256,uint256,bool)": "7dbdc226",
        "deposit(address,address,address,uint256)": "0284c3f5",
        "factory()": "c45a0155",
        "getPosition(address,address,address)": "713390f5",
        "getQuoteAmount(address,address,uint8,uint256)": "ab46b4a6",
        "getReserves(address,address)": "d52bb6f4",
        "getWithdrawable(address,address,address)": "05ea8223",
        "openPositionWithMargin(address,address,uint8,uint256,uint256,uint256)": "43c8d33b",
        "openPositionWithWallet(address,address,uint8,uint256,uint256,uint256,uint256)": "3dff89a7",
        "queryMaxOpenPosition(address,address,uint8,uint256)": "eb194c47",
        "removeLiquidity(address,address,uint256,uint256,uint256)": "e2dc85dc",
        "withdraw(address,address,uint256)": "d9caed12"
    },
    "gasEstimates": {
        "creation": {
            "codeDepositCost": "1862600",
            "executionCost": "infinite",
            "totalCost": "infinite"
        },
        "external": {
            "WETH()": "infinite",
            "addLiquidity(address,address,uint256,uint256,uint256,bool)": "infinite",
            "closePosition(address,address,uint256,uint256,bool)": "infinite",
            "deposit(address,address,address,uint256)": "infinite",
            "factory()": "infinite",
            "getPosition(address,address,address)": "infinite",
            "getQuoteAmount(address,address,uint8,uint256)": "infinite",
            "getReserves(address,address)": "infinite",
            "getWithdrawable(address,address,address)": "infinite",
            "openPositionWithMargin(address,address,uint8,uint256,uint256,uint256)": "infinite",
            "openPositionWithWallet(address,address,uint8,uint256,uint256,uint256,uint256)": "infinite",
            "queryMaxOpenPosition(address,address,uint8,uint256)": "infinite",
            "removeLiquidity(address,address,uint256,uint256,uint256)": "infinite",
            "withdraw(address,address,uint256)": "infinite"
        },
        "internal": {
            "getAmountIn(uint256,uint256,uint256)": "infinite",
            "getAmountOut(uint256,uint256,uint256)": "infinite"
        }
    }
}